{
  "_format": "hh-sol-artifact-1",
  "contractName": "NFTMarket",
  "sourceName": "contracts/Market.sol",
  "abi": [
    {
      "inputs": [],
      "stateMutability": "nonpayable",
      "type": "constructor"
    },
    {
      "anonymous": false,
      "inputs": [
        {
          "indexed": true,
          "internalType": "address",
          "name": "owner",
          "type": "address"
        },
        {
          "indexed": true,
          "internalType": "address",
          "name": "approved",
          "type": "address"
        },
        {
          "indexed": true,
          "internalType": "uint256",
          "name": "tokenId",
          "type": "uint256"
        }
      ],
      "name": "Approval",
      "type": "event"
    },
    {
      "anonymous": false,
      "inputs": [
        {
          "indexed": true,
          "internalType": "address",
          "name": "owner",
          "type": "address"
        },
        {
          "indexed": true,
          "internalType": "address",
          "name": "operator",
          "type": "address"
        },
        {
          "indexed": false,
          "internalType": "bool",
          "name": "approved",
          "type": "bool"
        }
      ],
      "name": "ApprovalForAll",
      "type": "event"
    },
    {
      "anonymous": false,
      "inputs": [
        {
          "indexed": true,
          "internalType": "uint256",
          "name": "tokenId",
          "type": "uint256"
        },
        {
          "indexed": false,
          "internalType": "address",
          "name": "seller",
          "type": "address"
        },
        {
          "indexed": false,
          "internalType": "address",
          "name": "owner",
          "type": "address"
        },
        {
          "indexed": false,
          "internalType": "uint256",
          "name": "precio",
          "type": "uint256"
        },
        {
          "indexed": false,
          "internalType": "bool",
          "name": "vendido",
          "type": "bool"
        },
        {
          "indexed": false,
          "internalType": "address",
          "name": "creador",
          "type": "address"
        },
        {
          "indexed": false,
          "internalType": "bool",
          "name": "enVenta",
          "type": "bool"
        }
      ],
      "name": "CrearMarketNFT",
      "type": "event"
    },
    {
      "anonymous": false,
      "inputs": [
        {
          "indexed": true,
          "internalType": "address",
          "name": "from",
          "type": "address"
        },
        {
          "indexed": true,
          "internalType": "address",
          "name": "to",
          "type": "address"
        },
        {
          "indexed": true,
          "internalType": "uint256",
          "name": "tokenId",
          "type": "uint256"
        }
      ],
      "name": "Transfer",
      "type": "event"
    },
    {
      "stateMutability": "payable",
      "type": "fallback"
    },
    {
      "inputs": [
        {
          "internalType": "address",
          "name": "to",
          "type": "address"
        },
        {
          "internalType": "uint256",
          "name": "tokenId",
          "type": "uint256"
        }
      ],
      "name": "approve",
      "outputs": [],
      "stateMutability": "nonpayable",
      "type": "function"
    },
    {
      "inputs": [
        {
          "internalType": "address",
          "name": "owner",
          "type": "address"
        }
      ],
      "name": "balanceOf",
      "outputs": [
        {
          "internalType": "uint256",
          "name": "",
          "type": "uint256"
        }
      ],
      "stateMutability": "view",
      "type": "function"
    },
    {
      "inputs": [
        {
          "internalType": "uint256",
          "name": "tokenId",
          "type": "uint256"
        }
      ],
      "name": "compraNFT",
      "outputs": [],
      "stateMutability": "payable",
      "type": "function"
    },
    {
      "inputs": [
        {
          "internalType": "string",
          "name": "tokenURI",
          "type": "string"
        },
        {
          "internalType": "uint256",
          "name": "precio",
          "type": "uint256"
        }
      ],
      "name": "createToken",
      "outputs": [
        {
          "internalType": "uint256",
          "name": "",
          "type": "uint256"
        }
      ],
      "stateMutability": "payable",
      "type": "function"
    },
    {
      "inputs": [
        {
          "internalType": "uint256",
          "name": "tokenId",
          "type": "uint256"
        }
      ],
      "name": "getApproved",
      "outputs": [
        {
          "internalType": "address",
          "name": "",
          "type": "address"
        }
      ],
      "stateMutability": "view",
      "type": "function"
    },
    {
      "inputs": [],
      "name": "getMisNFTs",
      "outputs": [
        {
          "components": [
            {
              "internalType": "uint256",
              "name": "tokenId",
              "type": "uint256"
            },
            {
              "internalType": "address payable",
              "name": "seller",
              "type": "address"
            },
            {
              "internalType": "address payable",
              "name": "owner",
              "type": "address"
            },
            {
              "internalType": "uint256",
              "name": "precio",
              "type": "uint256"
            },
            {
              "internalType": "bool",
              "name": "vendido",
              "type": "bool"
            },
            {
              "internalType": "address payable",
              "name": "creador",
              "type": "address"
            },
            {
              "internalType": "bool",
              "name": "enVenta",
              "type": "bool"
            }
          ],
          "internalType": "struct NFTMarket.MarketNFT[]",
          "name": "",
          "type": "tuple[]"
        }
      ],
      "stateMutability": "view",
      "type": "function"
    },
    {
      "inputs": [],
      "name": "getMisNFTsCreados",
      "outputs": [
        {
          "components": [
            {
              "internalType": "uint256",
              "name": "tokenId",
              "type": "uint256"
            },
            {
              "internalType": "address payable",
              "name": "seller",
              "type": "address"
            },
            {
              "internalType": "address payable",
              "name": "owner",
              "type": "address"
            },
            {
              "internalType": "uint256",
              "name": "precio",
              "type": "uint256"
            },
            {
              "internalType": "bool",
              "name": "vendido",
              "type": "bool"
            },
            {
              "internalType": "address payable",
              "name": "creador",
              "type": "address"
            },
            {
              "internalType": "bool",
              "name": "enVenta",
              "type": "bool"
            }
          ],
          "internalType": "struct NFTMarket.MarketNFT[]",
          "name": "",
          "type": "tuple[]"
        }
      ],
      "stateMutability": "view",
      "type": "function"
    },
    {
      "inputs": [
        {
          "internalType": "uint256",
          "name": "nftId",
          "type": "uint256"
        }
      ],
      "name": "getNFTPorId",
      "outputs": [
        {
          "components": [
            {
              "internalType": "uint256",
              "name": "tokenId",
              "type": "uint256"
            },
            {
              "internalType": "address payable",
              "name": "seller",
              "type": "address"
            },
            {
              "internalType": "address payable",
              "name": "owner",
              "type": "address"
            },
            {
              "internalType": "uint256",
              "name": "precio",
              "type": "uint256"
            },
            {
              "internalType": "bool",
              "name": "vendido",
              "type": "bool"
            },
            {
              "internalType": "address payable",
              "name": "creador",
              "type": "address"
            },
            {
              "internalType": "bool",
              "name": "enVenta",
              "type": "bool"
            }
          ],
          "internalType": "struct NFTMarket.MarketNFT",
          "name": "",
          "type": "tuple"
        }
      ],
      "stateMutability": "view",
      "type": "function"
    },
    {
      "inputs": [],
      "name": "getNFTsMercado",
      "outputs": [
        {
          "components": [
            {
              "internalType": "uint256",
              "name": "tokenId",
              "type": "uint256"
            },
            {
              "internalType": "address payable",
              "name": "seller",
              "type": "address"
            },
            {
              "internalType": "address payable",
              "name": "owner",
              "type": "address"
            },
            {
              "internalType": "uint256",
              "name": "precio",
              "type": "uint256"
            },
            {
              "internalType": "bool",
              "name": "vendido",
              "type": "bool"
            },
            {
              "internalType": "address payable",
              "name": "creador",
              "type": "address"
            },
            {
              "internalType": "bool",
              "name": "enVenta",
              "type": "bool"
            }
          ],
          "internalType": "struct NFTMarket.MarketNFT[]",
          "name": "",
          "type": "tuple[]"
        }
      ],
      "stateMutability": "view",
      "type": "function"
    },
    {
      "inputs": [],
      "name": "getPrecioGas",
      "outputs": [
        {
          "internalType": "uint256",
          "name": "",
          "type": "uint256"
        }
      ],
      "stateMutability": "view",
      "type": "function"
    },
    {
      "inputs": [
        {
          "internalType": "address",
          "name": "owner",
          "type": "address"
        },
        {
          "internalType": "address",
          "name": "operator",
          "type": "address"
        }
      ],
      "name": "isApprovedForAll",
      "outputs": [
        {
          "internalType": "bool",
          "name": "",
          "type": "bool"
        }
      ],
      "stateMutability": "view",
      "type": "function"
    },
    {
      "inputs": [],
      "name": "name",
      "outputs": [
        {
          "internalType": "string",
          "name": "",
          "type": "string"
        }
      ],
      "stateMutability": "view",
      "type": "function"
    },
    {
      "inputs": [
        {
          "internalType": "uint256",
          "name": "tokenId",
          "type": "uint256"
        }
      ],
      "name": "ownerOf",
      "outputs": [
        {
          "internalType": "address",
          "name": "",
          "type": "address"
        }
      ],
      "stateMutability": "view",
      "type": "function"
    },
    {
      "inputs": [
        {
          "internalType": "address",
          "name": "from",
          "type": "address"
        },
        {
          "internalType": "address",
          "name": "to",
          "type": "address"
        },
        {
          "internalType": "uint256",
          "name": "tokenId",
          "type": "uint256"
        }
      ],
      "name": "safeTransferFrom",
      "outputs": [],
      "stateMutability": "nonpayable",
      "type": "function"
    },
    {
      "inputs": [
        {
          "internalType": "address",
          "name": "from",
          "type": "address"
        },
        {
          "internalType": "address",
          "name": "to",
          "type": "address"
        },
        {
          "internalType": "uint256",
          "name": "tokenId",
          "type": "uint256"
        },
        {
          "internalType": "bytes",
          "name": "_data",
          "type": "bytes"
        }
      ],
      "name": "safeTransferFrom",
      "outputs": [],
      "stateMutability": "nonpayable",
      "type": "function"
    },
    {
      "inputs": [
        {
          "internalType": "address",
          "name": "operator",
          "type": "address"
        },
        {
          "internalType": "bool",
          "name": "approved",
          "type": "bool"
        }
      ],
      "name": "setApprovalForAll",
      "outputs": [],
      "stateMutability": "nonpayable",
      "type": "function"
    },
    {
      "inputs": [
        {
          "internalType": "bytes4",
          "name": "interfaceId",
          "type": "bytes4"
        }
      ],
      "name": "supportsInterface",
      "outputs": [
        {
          "internalType": "bool",
          "name": "",
          "type": "bool"
        }
      ],
      "stateMutability": "view",
      "type": "function"
    },
    {
      "inputs": [],
      "name": "symbol",
      "outputs": [
        {
          "internalType": "string",
          "name": "",
          "type": "string"
        }
      ],
      "stateMutability": "view",
      "type": "function"
    },
    {
      "inputs": [
        {
          "internalType": "uint256",
          "name": "tokenId",
          "type": "uint256"
        }
      ],
      "name": "tokenURI",
      "outputs": [
        {
          "internalType": "string",
          "name": "",
          "type": "string"
        }
      ],
      "stateMutability": "view",
      "type": "function"
    },
    {
      "inputs": [
        {
          "internalType": "address",
          "name": "from",
          "type": "address"
        },
        {
          "internalType": "address",
          "name": "to",
          "type": "address"
        },
        {
          "internalType": "uint256",
          "name": "tokenId",
          "type": "uint256"
        }
      ],
      "name": "transferFrom",
      "outputs": [],
      "stateMutability": "nonpayable",
      "type": "function"
    },
    {
      "inputs": [
        {
          "internalType": "uint256",
          "name": "tokenId",
          "type": "uint256"
        },
        {
          "internalType": "uint256",
          "name": "precio",
          "type": "uint256"
        }
      ],
      "name": "venderNFT",
      "outputs": [],
      "stateMutability": "payable",
      "type": "function"
    },
    {
      "stateMutability": "payable",
      "type": "receive"
    }
  ],
  "bytecode": "0x608060405265e35fa931a000600a553480156200001b57600080fd5b506040518060400160405280600381526020017f54464d00000000000000000000000000000000000000000000000000000000008152506040518060400160405280600381526020017f54464d00000000000000000000000000000000000000000000000000000000008152508160009080519060200190620000a092919062000103565b508060019080519060200190620000b992919062000103565b50505033600960006101000a81548173ffffffffffffffffffffffffffffffffffffffff021916908373ffffffffffffffffffffffffffffffffffffffff16021790555062000218565b8280546200011190620001b3565b90600052602060002090601f01602090048101928262000135576000855562000181565b82601f106200015057805160ff191683800117855562000181565b8280016001018555821562000181579182015b828111156200018057825182559160200191906001019062000163565b5b50905062000190919062000194565b5090565b5b80821115620001af57600081600090555060010162000195565b5090565b60006002820490506001821680620001cc57607f821691505b60208210811415620001e357620001e2620001e9565b5b50919050565b7f4e487b7100000000000000000000000000000000000000000000000000000000600052602260045260246000fd5b6147fd80620002286000396000f3fe60806040526004361061012e5760003560e01c806370a08231116100ab578063a22cb4651161006f578063a22cb465146103f7578063ab72e59a14610420578063b88d4fde1461044b578063c425810714610474578063c87b56dd1461049f578063e985e9c5146104dc57610135565b806370a082311461031857806372b3b6201461035557806373d5316a14610385578063755b8b07146103a157806395d89b41146103cc57610135565b806323b872dd116100f257806323b872dd146102305780633931a2af1461025957806342842e0e146102965780635e0240b1146102bf5780636352211e146102db57610135565b806301ffc9a71461013757806306fdde0314610174578063081812fc1461019f578063095ea7b3146101dc5780631a7ab8a11461020557610135565b3661013557005b005b34801561014357600080fd5b5061015e600480360381019061015991906132be565b610519565b60405161016b9190613a45565b60405180910390f35b34801561018057600080fd5b506101896105fb565b6040516101969190613a60565b60405180910390f35b3480156101ab57600080fd5b506101c660048036038101906101c19190613364565b61068d565b6040516101d3919061395b565b60405180910390f35b3480156101e857600080fd5b5061020360048036038101906101fe9190613282565b610712565b005b34801561021157600080fd5b5061021a61082a565b6040516102279190613a23565b60405180910390f35b34801561023c57600080fd5b506102576004803603810190610252919061317c565b610b50565b005b34801561026557600080fd5b50610280600480360381019061027b9190613364565b610bb0565b60405161028d9190613d22565b60405180910390f35b3480156102a257600080fd5b506102bd60048036038101906102b8919061317c565b610d29565b005b6102d960048036038101906102d49190613364565b610d49565b005b3480156102e757600080fd5b5061030260048036038101906102fd9190613364565b610fb6565b60405161030f919061395b565b60405180910390f35b34801561032457600080fd5b5061033f600480360381019061033a9190613117565b611068565b60405161034c9190613d3d565b60405180910390f35b61036f600480360381019061036a9190613310565b611120565b60405161037c9190613d3d565b60405180910390f35b61039f600480360381019061039a919061338d565b611162565b005b3480156103ad57600080fd5b506103b6611386565b6040516103c39190613a23565b60405180910390f35b3480156103d857600080fd5b506103e1611821565b6040516103ee9190613a60565b60405180910390f35b34801561040357600080fd5b5061041e60048036038101906104199190613246565b6118b3565b005b34801561042c57600080fd5b506104356118c9565b6040516104429190613a23565b60405180910390f35b34801561045757600080fd5b50610472600480360381019061046d91906131cb565b611c74565b005b34801561048057600080fd5b50610489611cd6565b6040516104969190613d3d565b60405180910390f35b3480156104ab57600080fd5b506104c660048036038101906104c19190613364565b611ce0565b6040516104d39190613a60565b60405180910390f35b3480156104e857600080fd5b5061050360048036038101906104fe9190613140565b611e32565b6040516105109190613a45565b60405180910390f35b60007f80ac58cd000000000000000000000000000000000000000000000000000000007bffffffffffffffffffffffffffffffffffffffffffffffffffffffff1916827bffffffffffffffffffffffffffffffffffffffffffffffffffffffff191614806105e457507f5b5e139f000000000000000000000000000000000000000000000000000000007bffffffffffffffffffffffffffffffffffffffffffffffffffffffff1916827bffffffffffffffffffffffffffffffffffffffffffffffffffffffff1916145b806105f457506105f382611ec6565b5b9050919050565b60606000805461060a90613fde565b80601f016020809104026020016040519081016040528092919081815260200182805461063690613fde565b80156106835780601f1061065857610100808354040283529160200191610683565b820191906000526020600020905b81548152906001019060200180831161066657829003601f168201915b5050505050905090565b600061069882611f30565b6106d7576040517f08c379a00000000000000000000000000000000000000000000000000000000081526004016106ce90613c62565b60405180910390fd5b6004600083815260200190815260200160002060009054906101000a900473ffffffffffffffffffffffffffffffffffffffff169050919050565b600061071d82610fb6565b90508073ffffffffffffffffffffffffffffffffffffffff168373ffffffffffffffffffffffffffffffffffffffff16141561078e576040517f08c379a000000000000000000000000000000000000000000000000000000000815260040161078590613ca2565b60405180910390fd5b8073ffffffffffffffffffffffffffffffffffffffff166107ad611f9c565b73ffffffffffffffffffffffffffffffffffffffff1614806107dc57506107db816107d6611f9c565b611e32565b5b61081b576040517f08c379a000000000000000000000000000000000000000000000000000000000815260040161081290613b62565b60405180910390fd5b6108258383611fa4565b505050565b60606000610838600761205d565b90506000610846600861205d565b610850600761205d565b61085a9190613ee2565b90506000808267ffffffffffffffff81111561089f577f4e487b7100000000000000000000000000000000000000000000000000000000600052604160045260246000fd5b6040519080825280602002602001820160405280156108d857816020015b6108c5612eb8565b8152602001906001900390816108bd5790505b50905060005b84811015610b45573073ffffffffffffffffffffffffffffffffffffffff16600b600060018461090e9190613e5b565b815260200190815260200160002060020160009054906101000a900473ffffffffffffffffffffffffffffffffffffffff1673ffffffffffffffffffffffffffffffffffffffff161415610b3257600060018261096b9190613e5b565b90506000600b60008381526020019081526020016000209050806040518060e0016040529081600082015481526020016001820160009054906101000a900473ffffffffffffffffffffffffffffffffffffffff1673ffffffffffffffffffffffffffffffffffffffff1673ffffffffffffffffffffffffffffffffffffffff1681526020016002820160009054906101000a900473ffffffffffffffffffffffffffffffffffffffff1673ffffffffffffffffffffffffffffffffffffffff1673ffffffffffffffffffffffffffffffffffffffff168152602001600382015481526020016004820160009054906101000a900460ff161515151581526020016004820160019054906101000a900473ffffffffffffffffffffffffffffffffffffffff1673ffffffffffffffffffffffffffffffffffffffff1673ffffffffffffffffffffffffffffffffffffffff1681526020016004820160159054906101000a900460ff161515151581525050848681518110610b15577f4e487b7100000000000000000000000000000000000000000000000000000000600052603260045260246000fd5b6020026020010181905250600185610b2d9190613e5b565b945050505b8080610b3d90614041565b9150506108de565b508094505050505090565b610b61610b5b611f9c565b8261206b565b610ba0576040517f08c379a0000000000000000000000000000000000000000000000000000000008152600401610b9790613ce2565b60405180910390fd5b610bab838383612149565b505050565b610bb8612eb8565b600b60008381526020019081526020016000206040518060e0016040529081600082015481526020016001820160009054906101000a900473ffffffffffffffffffffffffffffffffffffffff1673ffffffffffffffffffffffffffffffffffffffff1673ffffffffffffffffffffffffffffffffffffffff1681526020016002820160009054906101000a900473ffffffffffffffffffffffffffffffffffffffff1673ffffffffffffffffffffffffffffffffffffffff1673ffffffffffffffffffffffffffffffffffffffff168152602001600382015481526020016004820160009054906101000a900460ff161515151581526020016004820160019054906101000a900473ffffffffffffffffffffffffffffffffffffffff1673ffffffffffffffffffffffffffffffffffffffff1673ffffffffffffffffffffffffffffffffffffffff1681526020016004820160159054906101000a900460ff1615151515815250509050919050565b610d4483838360405180602001604052806000815250611c74565b505050565b6000600b60008381526020019081526020016000206003015490506000600b600084815260200190815260200160002060010160009054906101000a900473ffffffffffffffffffffffffffffffffffffffff169050813414610de1576040517f08c379a0000000000000000000000000000000000000000000000000000000008152600401610dd890613be2565b60405180910390fd5b33600b600085815260200190815260200160002060020160006101000a81548173ffffffffffffffffffffffffffffffffffffffff021916908373ffffffffffffffffffffffffffffffffffffffff1602179055506001600b600085815260200190815260200160002060040160006101000a81548160ff0219169083151502179055506000600b600085815260200190815260200160002060040160156101000a81548160ff0219169083151502179055506000600b600085815260200190815260200160002060010160006101000a81548173ffffffffffffffffffffffffffffffffffffffff021916908373ffffffffffffffffffffffffffffffffffffffff160217905550610ef460086123b0565b610eff303385612149565b600960009054906101000a900473ffffffffffffffffffffffffffffffffffffffff1673ffffffffffffffffffffffffffffffffffffffff166108fc600a549081150290604051600060405180830381858888f19350505050158015610f69573d6000803e3d6000fd5b508073ffffffffffffffffffffffffffffffffffffffff166108fc349081150290604051600060405180830381858888f19350505050158015610fb0573d6000803e3d6000fd5b50505050565b6000806002600084815260200190815260200160002060009054906101000a900473ffffffffffffffffffffffffffffffffffffffff169050600073ffffffffffffffffffffffffffffffffffffffff168173ffffffffffffffffffffffffffffffffffffffff16141561105f576040517f08c379a000000000000000000000000000000000000000000000000000000000815260040161105690613ba2565b60405180910390fd5b80915050919050565b60008073ffffffffffffffffffffffffffffffffffffffff168273ffffffffffffffffffffffffffffffffffffffff1614156110d9576040517f08c379a00000000000000000000000000000000000000000000000000000000081526004016110d090613b82565b60405180910390fd5b600360008373ffffffffffffffffffffffffffffffffffffffff1673ffffffffffffffffffffffffffffffffffffffff168152602001908152602001600020549050919050565b600061112c60076123b0565b6000611138600761205d565b905061114433826123c6565b61114e81856125a0565b6111588184612614565b8091505092915050565b3373ffffffffffffffffffffffffffffffffffffffff16600b600084815260200190815260200160002060020160009054906101000a900473ffffffffffffffffffffffffffffffffffffffff1673ffffffffffffffffffffffffffffffffffffffff1614611206576040517f08c379a00000000000000000000000000000000000000000000000000000000081526004016111fd90613c42565b60405180910390fd5b600a54341461124a576040517f08c379a000000000000000000000000000000000000000000000000000000000815260040161124190613cc2565b60405180910390fd5b6000600b600084815260200190815260200160002060040160006101000a81548160ff02191690831515021790555080600b60008481526020019081526020016000206003018190555033600b600084815260200190815260200160002060010160006101000a81548173ffffffffffffffffffffffffffffffffffffffff021916908373ffffffffffffffffffffffffffffffffffffffff16021790555030600b600084815260200190815260200160002060020160006101000a81548173ffffffffffffffffffffffffffffffffffffffff021916908373ffffffffffffffffffffffffffffffffffffffff1602179055506001600b600084815260200190815260200160002060040160156101000a81548160ff0219169083151502179055506113776008612864565b611382333084612149565b5050565b60606000611394600761205d565b905060008060005b838110156114b5573373ffffffffffffffffffffffffffffffffffffffff16600b60006001846113cc9190613e5b565b815260200190815260200160002060020160009054906101000a900473ffffffffffffffffffffffffffffffffffffffff1673ffffffffffffffffffffffffffffffffffffffff16148061148d57503373ffffffffffffffffffffffffffffffffffffffff16600b60006001846114439190613e5b565b815260200190815260200160002060010160009054906101000a900473ffffffffffffffffffffffffffffffffffffffff1673ffffffffffffffffffffffffffffffffffffffff16145b156114a25760018361149f9190613e5b565b92505b80806114ad90614041565b91505061139c565b5060008267ffffffffffffffff8111156114f8577f4e487b7100000000000000000000000000000000000000000000000000000000600052604160045260246000fd5b60405190808252806020026020018201604052801561153157816020015b61151e612eb8565b8152602001906001900390816115165790505b50905060005b84811015611816573373ffffffffffffffffffffffffffffffffffffffff16600b60006001846115679190613e5b565b815260200190815260200160002060020160009054906101000a900473ffffffffffffffffffffffffffffffffffffffff1673ffffffffffffffffffffffffffffffffffffffff16148061162857503373ffffffffffffffffffffffffffffffffffffffff16600b60006001846115de9190613e5b565b815260200190815260200160002060010160009054906101000a900473ffffffffffffffffffffffffffffffffffffffff1673ffffffffffffffffffffffffffffffffffffffff16145b1561180357600060018261163c9190613e5b565b90506000600b60008381526020019081526020016000209050806040518060e0016040529081600082015481526020016001820160009054906101000a900473ffffffffffffffffffffffffffffffffffffffff1673ffffffffffffffffffffffffffffffffffffffff1673ffffffffffffffffffffffffffffffffffffffff1681526020016002820160009054906101000a900473ffffffffffffffffffffffffffffffffffffffff1673ffffffffffffffffffffffffffffffffffffffff1673ffffffffffffffffffffffffffffffffffffffff168152602001600382015481526020016004820160009054906101000a900460ff161515151581526020016004820160019054906101000a900473ffffffffffffffffffffffffffffffffffffffff1673ffffffffffffffffffffffffffffffffffffffff1673ffffffffffffffffffffffffffffffffffffffff1681526020016004820160159054906101000a900460ff1615151515815250508486815181106117e6577f4e487b7100000000000000000000000000000000000000000000000000000000600052603260045260246000fd5b60200260200101819052506001856117fe9190613e5b565b945050505b808061180e90614041565b915050611537565b508094505050505090565b60606001805461183090613fde565b80601f016020809104026020016040519081016040528092919081815260200182805461185c90613fde565b80156118a95780601f1061187e576101008083540402835291602001916118a9565b820191906000526020600020905b81548152906001019060200180831161188c57829003601f168201915b5050505050905090565b6118c56118be611f9c565b83836128c0565b5050565b606060006118d7600761205d565b905060008060005b83811015611980573373ffffffffffffffffffffffffffffffffffffffff16600b600060018461190f9190613e5b565b815260200190815260200160002060040160019054906101000a900473ffffffffffffffffffffffffffffffffffffffff1673ffffffffffffffffffffffffffffffffffffffff16141561196d5760018361196a9190613e5b565b92505b808061197890614041565b9150506118df565b5060008267ffffffffffffffff8111156119c3577f4e487b7100000000000000000000000000000000000000000000000000000000600052604160045260246000fd5b6040519080825280602002602001820160405280156119fc57816020015b6119e9612eb8565b8152602001906001900390816119e15790505b50905060005b84811015611c69573373ffffffffffffffffffffffffffffffffffffffff16600b6000600184611a329190613e5b565b815260200190815260200160002060040160019054906101000a900473ffffffffffffffffffffffffffffffffffffffff1673ffffffffffffffffffffffffffffffffffffffff161415611c56576000600182611a8f9190613e5b565b90506000600b60008381526020019081526020016000209050806040518060e0016040529081600082015481526020016001820160009054906101000a900473ffffffffffffffffffffffffffffffffffffffff1673ffffffffffffffffffffffffffffffffffffffff1673ffffffffffffffffffffffffffffffffffffffff1681526020016002820160009054906101000a900473ffffffffffffffffffffffffffffffffffffffff1673ffffffffffffffffffffffffffffffffffffffff1673ffffffffffffffffffffffffffffffffffffffff168152602001600382015481526020016004820160009054906101000a900460ff161515151581526020016004820160019054906101000a900473ffffffffffffffffffffffffffffffffffffffff1673ffffffffffffffffffffffffffffffffffffffff1673ffffffffffffffffffffffffffffffffffffffff1681526020016004820160159054906101000a900460ff161515151581525050848681518110611c39577f4e487b7100000000000000000000000000000000000000000000000000000000600052603260045260246000fd5b6020026020010181905250600185611c519190613e5b565b945050505b8080611c6190614041565b915050611a02565b508094505050505090565b611c85611c7f611f9c565b8361206b565b611cc4576040517f08c379a0000000000000000000000000000000000000000000000000000000008152600401611cbb90613ce2565b60405180910390fd5b611cd084848484612a2d565b50505050565b6000600a54905090565b6060611ceb82611f30565b611d2a576040517f08c379a0000000000000000000000000000000000000000000000000000000008152600401611d2190613c22565b60405180910390fd5b6000600660008481526020019081526020016000208054611d4a90613fde565b80601f0160208091040260200160405190810160405280929190818152602001828054611d7690613fde565b8015611dc35780601f10611d9857610100808354040283529160200191611dc3565b820191906000526020600020905b815481529060010190602001808311611da657829003601f168201915b505050505090506000611dd4612a89565b9050600081511415611dea578192505050611e2d565b600082511115611e1f578082604051602001611e07929190613937565b60405160208183030381529060405292505050611e2d565b611e2884612aa0565b925050505b919050565b6000600560008473ffffffffffffffffffffffffffffffffffffffff1673ffffffffffffffffffffffffffffffffffffffff16815260200190815260200160002060008373ffffffffffffffffffffffffffffffffffffffff1673ffffffffffffffffffffffffffffffffffffffff16815260200190815260200160002060009054906101000a900460ff16905092915050565b60007f01ffc9a7000000000000000000000000000000000000000000000000000000007bffffffffffffffffffffffffffffffffffffffffffffffffffffffff1916827bffffffffffffffffffffffffffffffffffffffffffffffffffffffff1916149050919050565b60008073ffffffffffffffffffffffffffffffffffffffff166002600084815260200190815260200160002060009054906101000a900473ffffffffffffffffffffffffffffffffffffffff1673ffffffffffffffffffffffffffffffffffffffff1614159050919050565b600033905090565b816004600083815260200190815260200160002060006101000a81548173ffffffffffffffffffffffffffffffffffffffff021916908373ffffffffffffffffffffffffffffffffffffffff160217905550808273ffffffffffffffffffffffffffffffffffffffff1661201783610fb6565b73ffffffffffffffffffffffffffffffffffffffff167f8c5be1e5ebec7d5bd14f71427d1e84f3dd0314c0f7b2291e5b200ac8c7c3b92560405160405180910390a45050565b600081600001549050919050565b600061207682611f30565b6120b5576040517f08c379a00000000000000000000000000000000000000000000000000000000081526004016120ac90613b42565b60405180910390fd5b60006120c083610fb6565b90508073ffffffffffffffffffffffffffffffffffffffff168473ffffffffffffffffffffffffffffffffffffffff16148061212f57508373ffffffffffffffffffffffffffffffffffffffff166121178461068d565b73ffffffffffffffffffffffffffffffffffffffff16145b80612140575061213f8185611e32565b5b91505092915050565b8273ffffffffffffffffffffffffffffffffffffffff1661216982610fb6565b73ffffffffffffffffffffffffffffffffffffffff16146121bf576040517f08c379a00000000000000000000000000000000000000000000000000000000081526004016121b690613ac2565b60405180910390fd5b600073ffffffffffffffffffffffffffffffffffffffff168273ffffffffffffffffffffffffffffffffffffffff16141561222f576040517f08c379a000000000000000000000000000000000000000000000000000000000815260040161222690613b02565b60405180910390fd5b61223a838383612b47565b612245600082611fa4565b6001600360008573ffffffffffffffffffffffffffffffffffffffff1673ffffffffffffffffffffffffffffffffffffffff16815260200190815260200160002060008282546122959190613ee2565b925050819055506001600360008473ffffffffffffffffffffffffffffffffffffffff1673ffffffffffffffffffffffffffffffffffffffff16815260200190815260200160002060008282546122ec9190613e5b565b92505081905550816002600083815260200190815260200160002060006101000a81548173ffffffffffffffffffffffffffffffffffffffff021916908373ffffffffffffffffffffffffffffffffffffffff160217905550808273ffffffffffffffffffffffffffffffffffffffff168473ffffffffffffffffffffffffffffffffffffffff167fddf252ad1be2c89b69c2b068fc378daa952ba7f163c4a11628f55a4df523b3ef60405160405180910390a46123ab838383612b4c565b505050565b6001816000016000828254019250508190555050565b600073ffffffffffffffffffffffffffffffffffffffff168273ffffffffffffffffffffffffffffffffffffffff161415612436576040517f08c379a000000000000000000000000000000000000000000000000000000000815260040161242d90613c02565b60405180910390fd5b61243f81611f30565b1561247f576040517f08c379a000000000000000000000000000000000000000000000000000000000815260040161247690613ae2565b60405180910390fd5b61248b60008383612b47565b6001600360008473ffffffffffffffffffffffffffffffffffffffff1673ffffffffffffffffffffffffffffffffffffffff16815260200190815260200160002060008282546124db9190613e5b565b92505081905550816002600083815260200190815260200160002060006101000a81548173ffffffffffffffffffffffffffffffffffffffff021916908373ffffffffffffffffffffffffffffffffffffffff160217905550808273ffffffffffffffffffffffffffffffffffffffff16600073ffffffffffffffffffffffffffffffffffffffff167fddf252ad1be2c89b69c2b068fc378daa952ba7f163c4a11628f55a4df523b3ef60405160405180910390a461259c60008383612b4c565b5050565b6125a982611f30565b6125e8576040517f08c379a00000000000000000000000000000000000000000000000000000000081526004016125df90613bc2565b60405180910390fd5b8060066000848152602001908152602001600020908051906020019061260f929190612f3b565b505050565b60008111612657576040517f08c379a000000000000000000000000000000000000000000000000000000000815260040161264e90613d02565b60405180910390fd5b6040518060e001604052808381526020013373ffffffffffffffffffffffffffffffffffffffff1681526020013073ffffffffffffffffffffffffffffffffffffffff1681526020018281526020016000151581526020013373ffffffffffffffffffffffffffffffffffffffff16815260200160011515815250600b60008481526020019081526020016000206000820151816000015560208201518160010160006101000a81548173ffffffffffffffffffffffffffffffffffffffff021916908373ffffffffffffffffffffffffffffffffffffffff16021790555060408201518160020160006101000a81548173ffffffffffffffffffffffffffffffffffffffff021916908373ffffffffffffffffffffffffffffffffffffffff1602179055506060820151816003015560808201518160040160006101000a81548160ff02191690831515021790555060a08201518160040160016101000a81548173ffffffffffffffffffffffffffffffffffffffff021916908373ffffffffffffffffffffffffffffffffffffffff16021790555060c08201518160040160156101000a81548160ff02191690831515021790555090505061281c333084612149565b817fb93a5b4731b5e0b91bb3171c79dcd5611ca6f98abadc5cbd2d63bad936166761333084600033600160405161285896959493929190613976565b60405180910390a25050565b600081600001549050600081116128b0576040517f08c379a00000000000000000000000000000000000000000000000000000000081526004016128a790613a82565b60405180910390fd5b6001810382600001819055505050565b8173ffffffffffffffffffffffffffffffffffffffff168373ffffffffffffffffffffffffffffffffffffffff16141561292f576040517f08c379a000000000000000000000000000000000000000000000000000000000815260040161292690613b22565b60405180910390fd5b80600560008573ffffffffffffffffffffffffffffffffffffffff1673ffffffffffffffffffffffffffffffffffffffff16815260200190815260200160002060008473ffffffffffffffffffffffffffffffffffffffff1673ffffffffffffffffffffffffffffffffffffffff16815260200190815260200160002060006101000a81548160ff0219169083151502179055508173ffffffffffffffffffffffffffffffffffffffff168373ffffffffffffffffffffffffffffffffffffffff167f17307eab39ab6107e8899845ad3d59bd9653f200f220920489ca2b5937696c3183604051612a209190613a45565b60405180910390a3505050565b612a38848484612149565b612a4484848484612b51565b612a83576040517f08c379a0000000000000000000000000000000000000000000000000000000008152600401612a7a90613aa2565b60405180910390fd5b50505050565b606060405180602001604052806000815250905090565b6060612aab82611f30565b612aea576040517f08c379a0000000000000000000000000000000000000000000000000000000008152600401612ae190613c82565b60405180910390fd5b6000612af4612a89565b90506000815111612b145760405180602001604052806000815250612b3f565b80612b1e84612ce8565b604051602001612b2f929190613937565b6040516020818303038152906040525b915050919050565b505050565b505050565b6000612b728473ffffffffffffffffffffffffffffffffffffffff16612e95565b15612cdb578373ffffffffffffffffffffffffffffffffffffffff1663150b7a02612b9b611f9c565b8786866040518563ffffffff1660e01b8152600401612bbd94939291906139d7565b602060405180830381600087803b158015612bd757600080fd5b505af1925050508015612c0857506040513d601f19601f82011682018060405250810190612c0591906132e7565b60015b612c8b573d8060008114612c38576040519150601f19603f3d011682016040523d82523d6000602084013e612c3d565b606091505b50600081511415612c83576040517f08c379a0000000000000000000000000000000000000000000000000000000008152600401612c7a90613aa2565b60405180910390fd5b805181602001fd5b63150b7a0260e01b7bffffffffffffffffffffffffffffffffffffffffffffffffffffffff1916817bffffffffffffffffffffffffffffffffffffffffffffffffffffffff191614915050612ce0565b600190505b949350505050565b60606000821415612d30576040518060400160405280600181526020017f30000000000000000000000000000000000000000000000000000000000000008152509050612e90565b600082905060005b60008214612d62578080612d4b90614041565b915050600a82612d5b9190613eb1565b9150612d38565b60008167ffffffffffffffff811115612da4577f4e487b7100000000000000000000000000000000000000000000000000000000600052604160045260246000fd5b6040519080825280601f01601f191660200182016040528015612dd65781602001600182028036833780820191505090505b5090505b60008514612e8957600182612def9190613ee2565b9150600a85612dfe919061408a565b6030612e0a9190613e5b565b60f81b818381518110612e46577f4e487b7100000000000000000000000000000000000000000000000000000000600052603260045260246000fd5b60200101907effffffffffffffffffffffffffffffffffffffffffffffffffffffffffffff1916908160001a905350600a85612e829190613eb1565b9450612dda565b8093505050505b919050565b6000808273ffffffffffffffffffffffffffffffffffffffff163b119050919050565b6040518060e0016040528060008152602001600073ffffffffffffffffffffffffffffffffffffffff168152602001600073ffffffffffffffffffffffffffffffffffffffff16815260200160008152602001600015158152602001600073ffffffffffffffffffffffffffffffffffffffff1681526020016000151581525090565b828054612f4790613fde565b90600052602060002090601f016020900481019282612f695760008555612fb0565b82601f10612f8257805160ff1916838001178555612fb0565b82800160010185558215612fb0579182015b82811115612faf578251825591602001919060010190612f94565b5b509050612fbd9190612fc1565b5090565b5b80821115612fda576000816000905550600101612fc2565b5090565b6000612ff1612fec84613d7d565b613d58565b90508281526020810184848401111561300957600080fd5b613014848285613f9c565b509392505050565b600061302f61302a84613dae565b613d58565b90508281526020810184848401111561304757600080fd5b613052848285613f9c565b509392505050565b6000813590506130698161476b565b92915050565b60008135905061307e81614782565b92915050565b60008135905061309381614799565b92915050565b6000815190506130a881614799565b92915050565b600082601f8301126130bf57600080fd5b81356130cf848260208601612fde565b91505092915050565b600082601f8301126130e957600080fd5b81356130f984826020860161301c565b91505092915050565b600081359050613111816147b0565b92915050565b60006020828403121561312957600080fd5b60006131378482850161305a565b91505092915050565b6000806040838503121561315357600080fd5b60006131618582860161305a565b92505060206131728582860161305a565b9150509250929050565b60008060006060848603121561319157600080fd5b600061319f8682870161305a565b93505060206131b08682870161305a565b92505060406131c186828701613102565b9150509250925092565b600080600080608085870312156131e157600080fd5b60006131ef8782880161305a565b94505060206132008782880161305a565b935050604061321187828801613102565b925050606085013567ffffffffffffffff81111561322e57600080fd5b61323a878288016130ae565b91505092959194509250565b6000806040838503121561325957600080fd5b60006132678582860161305a565b92505060206132788582860161306f565b9150509250929050565b6000806040838503121561329557600080fd5b60006132a38582860161305a565b92505060206132b485828601613102565b9150509250929050565b6000602082840312156132d057600080fd5b60006132de84828501613084565b91505092915050565b6000602082840312156132f957600080fd5b600061330784828501613099565b91505092915050565b6000806040838503121561332357600080fd5b600083013567ffffffffffffffff81111561333d57600080fd5b613349858286016130d8565b925050602061335a85828601613102565b9150509250929050565b60006020828403121561337657600080fd5b600061338484828501613102565b91505092915050565b600080604083850312156133a057600080fd5b60006133ae85828601613102565b92505060206133bf85828601613102565b9150509250929050565b60006133d583836137fd565b60e08301905092915050565b6133ea81613f28565b82525050565b6133f981613f16565b82525050565b600061340a82613def565b6134148185613e1d565b935061341f83613ddf565b8060005b8381101561345057815161343788826133c9565b975061344283613e10565b925050600181019050613423565b5085935050505092915050565b61346681613f3a565b82525050565b61347581613f3a565b82525050565b600061348682613dfa565b6134908185613e2e565b93506134a0818560208601613fab565b6134a981614177565b840191505092915050565b60006134bf82613e05565b6134c98185613e3f565b93506134d9818560208601613fab565b6134e281614177565b840191505092915050565b60006134f882613e05565b6135028185613e50565b9350613512818560208601613fab565b80840191505092915050565b600061352b601b83613e3f565b915061353682614188565b602082019050919050565b600061354e603283613e3f565b9150613559826141b1565b604082019050919050565b6000613571602583613e3f565b915061357c82614200565b604082019050919050565b6000613594601c83613e3f565b915061359f8261424f565b602082019050919050565b60006135b7602483613e3f565b91506135c282614278565b604082019050919050565b60006135da601983613e3f565b91506135e5826142c7565b602082019050919050565b60006135fd602c83613e3f565b9150613608826142f0565b604082019050919050565b6000613620603883613e3f565b915061362b8261433f565b604082019050919050565b6000613643602a83613e3f565b915061364e8261438e565b604082019050919050565b6000613666602983613e3f565b9150613671826143dd565b604082019050919050565b6000613689602e83613e3f565b91506136948261442c565b604082019050919050565b60006136ac604083613e3f565b91506136b78261447b565b604082019050919050565b60006136cf602083613e3f565b91506136da826144ca565b602082019050919050565b60006136f2603183613e3f565b91506136fd826144f3565b604082019050919050565b6000613715602a83613e3f565b915061372082614542565b604082019050919050565b6000613738602c83613e3f565b915061374382614591565b604082019050919050565b600061375b602f83613e3f565b9150613766826145e0565b604082019050919050565b600061377e602183613e3f565b91506137898261462f565b604082019050919050565b60006137a1602483613e3f565b91506137ac8261467e565b604082019050919050565b60006137c4603183613e3f565b91506137cf826146cd565b604082019050919050565b60006137e7602383613e3f565b91506137f28261471c565b604082019050919050565b60e0820160008201516138136000850182613919565b50602082015161382660208501826133e1565b50604082015161383960408501826133e1565b50606082015161384c6060850182613919565b50608082015161385f608085018261345d565b5060a082015161387260a08501826133e1565b5060c082015161388560c085018261345d565b50505050565b60e0820160008201516138a16000850182613919565b5060208201516138b460208501826133e1565b5060408201516138c760408501826133e1565b5060608201516138da6060850182613919565b5060808201516138ed608085018261345d565b5060a082015161390060a08501826133e1565b5060c082015161391360c085018261345d565b50505050565b61392281613f92565b82525050565b61393181613f92565b82525050565b600061394382856134ed565b915061394f82846134ed565b91508190509392505050565b600060208201905061397060008301846133f0565b92915050565b600060c08201905061398b60008301896133f0565b61399860208301886133f0565b6139a56040830187613928565b6139b2606083018661346c565b6139bf60808301856133f0565b6139cc60a083018461346c565b979650505050505050565b60006080820190506139ec60008301876133f0565b6139f960208301866133f0565b613a066040830185613928565b8181036060830152613a18818461347b565b905095945050505050565b60006020820190508181036000830152613a3d81846133ff565b905092915050565b6000602082019050613a5a600083018461346c565b92915050565b60006020820190508181036000830152613a7a81846134b4565b905092915050565b60006020820190508181036000830152613a9b8161351e565b9050919050565b60006020820190508181036000830152613abb81613541565b9050919050565b60006020820190508181036000830152613adb81613564565b9050919050565b60006020820190508181036000830152613afb81613587565b9050919050565b60006020820190508181036000830152613b1b816135aa565b9050919050565b60006020820190508181036000830152613b3b816135cd565b9050919050565b60006020820190508181036000830152613b5b816135f0565b9050919050565b60006020820190508181036000830152613b7b81613613565b9050919050565b60006020820190508181036000830152613b9b81613636565b9050919050565b60006020820190508181036000830152613bbb81613659565b9050919050565b60006020820190508181036000830152613bdb8161367c565b9050919050565b60006020820190508181036000830152613bfb8161369f565b9050919050565b60006020820190508181036000830152613c1b816136c2565b9050919050565b60006020820190508181036000830152613c3b816136e5565b9050919050565b60006020820190508181036000830152613c5b81613708565b9050919050565b60006020820190508181036000830152613c7b8161372b565b9050919050565b60006020820190508181036000830152613c9b8161374e565b9050919050565b60006020820190508181036000830152613cbb81613771565b9050919050565b60006020820190508181036000830152613cdb81613794565b9050919050565b60006020820190508181036000830152613cfb816137b7565b9050919050565b60006020820190508181036000830152613d1b816137da565b9050919050565b600060e082019050613d37600083018461388b565b92915050565b6000602082019050613d526000830184613928565b92915050565b6000613d62613d73565b9050613d6e8282614010565b919050565b6000604051905090565b600067ffffffffffffffff821115613d9857613d97614148565b5b613da182614177565b9050602081019050919050565b600067ffffffffffffffff821115613dc957613dc8614148565b5b613dd282614177565b9050602081019050919050565b6000819050602082019050919050565b600081519050919050565b600081519050919050565b600081519050919050565b6000602082019050919050565b600082825260208201905092915050565b600082825260208201905092915050565b600082825260208201905092915050565b600081905092915050565b6000613e6682613f92565b9150613e7183613f92565b9250827fffffffffffffffffffffffffffffffffffffffffffffffffffffffffffffffff03821115613ea657613ea56140bb565b5b828201905092915050565b6000613ebc82613f92565b9150613ec783613f92565b925082613ed757613ed66140ea565b5b828204905092915050565b6000613eed82613f92565b9150613ef883613f92565b925082821015613f0b57613f0a6140bb565b5b828203905092915050565b6000613f2182613f72565b9050919050565b6000613f3382613f72565b9050919050565b60008115159050919050565b60007fffffffff0000000000000000000000000000000000000000000000000000000082169050919050565b600073ffffffffffffffffffffffffffffffffffffffff82169050919050565b6000819050919050565b82818337600083830152505050565b60005b83811015613fc9578082015181840152602081019050613fae565b83811115613fd8576000848401525b50505050565b60006002820490506001821680613ff657607f821691505b6020821081141561400a57614009614119565b5b50919050565b61401982614177565b810181811067ffffffffffffffff8211171561403857614037614148565b5b80604052505050565b600061404c82613f92565b91507fffffffffffffffffffffffffffffffffffffffffffffffffffffffffffffffff82141561407f5761407e6140bb565b5b600182019050919050565b600061409582613f92565b91506140a083613f92565b9250826140b0576140af6140ea565b5b828206905092915050565b7f4e487b7100000000000000000000000000000000000000000000000000000000600052601160045260246000fd5b7f4e487b7100000000000000000000000000000000000000000000000000000000600052601260045260246000fd5b7f4e487b7100000000000000000000000000000000000000000000000000000000600052602260045260246000fd5b7f4e487b7100000000000000000000000000000000000000000000000000000000600052604160045260246000fd5b6000601f19601f8301169050919050565b7f436f756e7465723a2064656372656d656e74206f766572666c6f770000000000600082015250565b7f4552433732313a207472616e7366657220746f206e6f6e20455243373231526560008201527f63656976657220696d706c656d656e7465720000000000000000000000000000602082015250565b7f4552433732313a207472616e736665722066726f6d20696e636f72726563742060008201527f6f776e6572000000000000000000000000000000000000000000000000000000602082015250565b7f4552433732313a20746f6b656e20616c7265616479206d696e74656400000000600082015250565b7f4552433732313a207472616e7366657220746f20746865207a65726f2061646460008201527f7265737300000000000000000000000000000000000000000000000000000000602082015250565b7f4552433732313a20617070726f766520746f2063616c6c657200000000000000600082015250565b7f4552433732313a206f70657261746f7220717565727920666f72206e6f6e657860008201527f697374656e7420746f6b656e0000000000000000000000000000000000000000602082015250565b7f4552433732313a20617070726f76652063616c6c6572206973206e6f74206f7760008201527f6e6572206e6f7220617070726f76656420666f7220616c6c0000000000000000602082015250565b7f4552433732313a2062616c616e636520717565727920666f7220746865207a6560008201527f726f206164647265737300000000000000000000000000000000000000000000602082015250565b7f4552433732313a206f776e657220717565727920666f72206e6f6e657869737460008201527f656e7420746f6b656e0000000000000000000000000000000000000000000000602082015250565b7f45524337323155524953746f726167653a2055524920736574206f66206e6f6e60008201527f6578697374656e7420746f6b656e000000000000000000000000000000000000602082015250565b7f506c65617365207375626d6974207468652061736b696e67207072696365206960008201527f6e206f7264657220746f20636f6d706c65746520746865207075726368617365602082015250565b7f4552433732313a206d696e7420746f20746865207a65726f2061646472657373600082015250565b7f45524337323155524953746f726167653a2055524920717565727920666f722060008201527f6e6f6e6578697374656e7420746f6b656e000000000000000000000000000000602082015250565b7f4f6e6c79206974656d206f776e65722063616e20706572666f726d207468697360008201527f206f7065726174696f6e00000000000000000000000000000000000000000000602082015250565b7f4552433732313a20617070726f76656420717565727920666f72206e6f6e657860008201527f697374656e7420746f6b656e0000000000000000000000000000000000000000602082015250565b7f4552433732314d657461646174613a2055524920717565727920666f72206e6f60008201527f6e6578697374656e7420746f6b656e0000000000000000000000000000000000602082015250565b7f4552433732313a20617070726f76616c20746f2063757272656e74206f776e6560008201527f7200000000000000000000000000000000000000000000000000000000000000602082015250565b7f5072696365206d75737420626520657175616c20746f206c697374696e67207060008201527f7269636500000000000000000000000000000000000000000000000000000000602082015250565b7f4552433732313a207472616e736665722063616c6c6572206973206e6f74206f60008201527f776e6572206e6f7220617070726f766564000000000000000000000000000000602082015250565b7f456c2070726563696f206e6f207075656465207365722030206f206e6567617460008201527f69766f0000000000000000000000000000000000000000000000000000000000602082015250565b61477481613f16565b811461477f57600080fd5b50565b61478b81613f3a565b811461479657600080fd5b50565b6147a281613f46565b81146147ad57600080fd5b50565b6147b981613f92565b81146147c457600080fd5b5056fea26469706673582212200133b372eebdd68afd5845739010e9d5d63904c4b09ddf00cd8ac1743b5981c664736f6c63430008040033",
  "linkReferences": {},
  "deployedLinkReferences": {}
}